:100000000C9435000C94A4010C94F7010C9452004C
:100010000C9452000C9452000C9452000C94520018
:100020000C9452000C9452000C9452000C94520008
:100030000C9452000C9452000C9452000C945200F8
:100040000C94BB000C9452000C9452000C9452007F
:100050000C9452000C94DF020C9452000C94520049
:100060000C9452000C9452004E0311241FBECFEF8B
:10007000D4E0DEBFCDBF11E0A0E0B1E001C01D9231
:10008000AB33B107E1F710E0CAE6D0E004C0229735
:10009000FE010E94CC03C836D107C9F70E9449036C
:1000A0000C94D0030C9400001092170110921801C8
:1000B0001092190110921A0110921B0110921C014A
:1000C00010921D0110921E01109213011092140142
:1000D000109215011092160110920F01109210014A
:1000E0001092110110921201299A10922701109278
:1000F00028011092290110922A01109223011092D6
:100100002401109225011092260110921F011092D5
:1001100020011092210110922201289A5E9A1092D9
:100120000E012A9A5F9A0895F89485E080936900F9
:1001300083E08DBB53985B9A52985A9A54985C9A74
:10014000219A209A229A569A579A299A289A2A9A54
:100150005E9A5F9A84B5836084BD85B5816085BDF4
:10016000EEE6F0E08081816080830E94C8020E94F8
:100170005400789408951F920F920FB60F92112495
:100180004F935F936F937F938F939F93AF93BF939F
:100190008091130190911401A0911501B091160165
:1001A000AC01BD014F5F5F4F6F4F7F4F4093130115
:1001B00050931401609315017093160140910F0143
:1001C00050911001609111017091120184179507EF
:1001D000A607B70709F4B6C0409113015091140166
:1001E000609115017091160180911B0190911C0185
:1001F000A0911D01B0911E01481759076A077B079E
:1002000048F02998109213011092140110921501D0
:10021000109216018091170190911801A091190177
:10022000B0911A010196A11DB11D80931701909301
:100230001801A0931901B0931A01809127019091A0
:100240002801A0912901B0912A010196A11DB11D9B
:100250008093270190932801A0932901B0932A014C
:100260004091230150912401609125017091260154
:1002700084179507A607B70710F0289A5E9A809111
:100280000E01882309F44BC080910A0190910B0163
:10029000A0910C01B0910D01AC01BD014F5F5F4F0A
:1002A0006F4F7F4F40930A0150930B0160930C01F5
:1002B00070930D0140910401509105016091060178
:1002C0007091070184179507A607B707C1F1409100
:1002D0000A0150910B0160910C0170910D01809108
:1002E000000190910101A0910201B0910301481712
:1002F00059076A077B0798F0809109018F5F809307
:100300000901909108018917B8F42A985F98109212
:100310000A0110920B0110920C0110920D01BF9175
:10032000AF919F918F917F916F915F914F910F90BE
:100330000FBE0F901F90189510920E01E8CF2A9AC9
:100340005F9AEDCF299A66CF1F920F920FB60F9248
:1003500011242F933F934F935F936F937F938F93CA
:100360009F93AF93BF934A9933C020912701309157
:1003700028014091290150912A0120931F013093B7
:100380002001409321015093220180912F019091EF
:100390003001AFEFBFE0A81BB90B0E948E032CE029
:1003A00096958795779567952A95D1F76093230160
:1003B00070932401809325019093260110922701C8
:1003C000109228011092290110922A0128985E9813
:1003D000BF91AF919F918F917F916F915F914F915D
:1003E0003F912F910F900FBE0F901F9018951F9265
:1003F0000F920FB60F9211242F933F934F935F9359
:100400006F937F938F939F93AF93BF93CF93DF931C
:10041000EF93FF934B994BC029986091170170910E
:1004200018018091190190911A0120912D013091AC
:100430002E01CFEFDFE0AE01421B530B9A01232FB9
:1004400033272F5F3F4F40E050E00E9499032093F5
:100450001B0130931C0140931D0150931E0180919C
:100460002F0190913001DE01A81BB90B0E948E0371
:100470005CE096958795779567955A95D1F7609347
:100480000F0170931001809311019093120110924B
:100490001701109218011092190110921A0110926E
:1004A0001301109214011092150110921601FF9180
:1004B000EF91DF91CF91BF91AF919F918F917F91FC
:1004C0006F915F914F913F912F910F900FBE0F90C1
:1004D0001F901895CF9389B182958F70C1E08C27BA
:1004E000E82FE170F0E080912B0190912C01E8174A
:1004F000F90731F0309731F4F0932C01E0932B01A0
:10050000CF9108952A985F98109209018091310146
:1005100090913201AFEFBFE09D01281B390B832F73
:10052000992701968093080120911B0130911C01AD
:1005300040911D0150911E01442755272093000131
:1005400030930101409302015093030180912F01E8
:1005500090913001A81BB90B0E948E03ACE09695D8
:10056000879577956795AA95D1F760930401709365
:100570000501809306019093070110920A011092E1
:100580000B0110920C0110920D01C0930E01B4CF1B
:10059000EAE7F0E0808187608083ACE7B0E08C918F
:1005A00080648C9380818062808380818068808376
:1005B00080818064808380818860808308951F9219
:1005C0000F920FB60F9211242F933F934F938F9357
:1005D0009F93EF93FF9340917C0047708091780048
:1005E00020917900E0913A01F0E0EE0FFF1FEC5C02
:1005F000FE4F90E0922B20813181820F931F9183D7
:10060000808340933A014F5F433091F080917C00AA
:10061000887F842B80937C00FF91EF919F918F9135
:100620004F913F912F910F900FBE0F901F901895F3
:10063000809133018F5F80933301843011F040E06B
:10064000E5CF109233018091340190913501909360
:100650002E0180932D01109235011092340180916A
:100660003601909137019093300180932F011092C1
:1006700037011092360180913801909139019093A1
:10068000320180933101109239011092380140E01B
:10069000BDCF0E9494000E946A02FDCF10922701F4
:1006A000109228011092290110922A011092230120
:1006B00010922401109225011092260110921F0120
:1006C000109220011092210110922201289A5E9A24
:1006D00010921701109218011092190110921A012C
:1006E00010921B0110921C0110921D0110921E010C
:1006F000109213011092140110921501109216011C
:1007000010920F011092100110921101109212011B
:10071000299A10920E012A9A5F9A08950E94BB03AB
:10072000A59F900DB49F900DA49F800D911D112445
:100730000895A1E21A2EAA1BBB1BFD010DC0AA1F22
:10074000BB1FEE1FFF1FA217B307E407F50720F03A
:10075000A21BB30BE40BF50B661F771F881F991FB5
:100760001A9469F760957095809590959B01AC01FE
:10077000BD01CF010895A29FB001B39FC001A39F07
:10078000700D811D1124911DB29F700D811D1124CA
:10079000911D0895EE0FFF1F0590F491E02D09942F
:0407A000F894FFCFFB
:00000001FF
